:020000022000DC
:1060000080A7002075C7020097C4040049C702009A
:1060100049C7020049C7020049C70200000000004A
:10602000000000000000000000000000BDC40200ED
:1060300049C702000000000075C4020049C7020001
:1060400039C5020091C9030039C5020039C50200F3
:1060500039C5020039C5020039C5020039C5020040
:1060600039C5020039C5020039C5020039C5020030
:1060700039C5020039C5020039C5020039C5020020
:1060800039C5020039C5020039C5020039C5020010
:1060900039C5020039C5020039C5020039C5020000
:1060A00039C5020039C5020039C5020039C50200F0
:1060B00039C5020039C5020039C5020039C50200E0
:1060C00039C5020039C5020039C5020039C50200D0
:1060D00039C5020039C5020039C5020039C50200C0
:1060E00039C5020039C5020039C5020039C50200B0
:1060F00039C5020039C5020039C5020039C50200A0
:1061000053B94AB9002908BF00281CBF4FF0FF311E
:106110004FF0FF3000F00CB8ADF1080C6DE904CE83
:1061200000F008F8DDF804E0DDE9022304B0704770
:10613000704700BF2DE9F04F07468C460846099E80
:1061400015463C461946002B40F0C6808242B2FA02
:1061500082F746D94FB1C7F1200E24FA0EFE00FA9D
:1061600007F3BD404EEA030CBC404FEA15481FFA46
:1061700085FEBCFBF8F9220C08FB19C309FB0EFADB
:1061800042EA03439A4528D9EB1809F1FF3004D2BB
:106190009A4502D9A9F102002B44A3EB0A03A4B249
:1061A000B3FBF8F208FB123302FB0EFE44EA034491
:1061B000A64514D92C1902F1FF3303D2A64501D903
:1061C000931E2C44A4EB0E0443EA00401EB1FC4095
:1061D000002334607360BDE8F08F4846DDE7134666
:1061E000F0E702B9FFDE87BB831A01214FEA154EA3
:1061F000AAB2B3FBFEFC200C0EFB1C330CFB02F816
:1062000040EA0343984563D9EB180CF1FF3004D200
:10621000984502D9ACF102002B44A3EB0803A4B2C9
:10622000B3FBFEFC0EFB1C330CFB02F244EA0344FE
:10623000A2424FD92C190CF1FF3304D2A24202D949
:10624000ACF102032C44A41ABEE7C7F1200C20FADB
:106250000CF800FA07F324FA0CFCBD404CEA0302E8
:106260004FEA154EABB2B8FBFEFC110C0EFB1C80C6
:106270000CFB03F941EA0040814504FA07F423D9F5
:1062800028180CF1FF3104D2814502D9ACF102018A
:106290002844A0EB090092B2B0FBFEFC0EFB1C00F0
:1062A0000CFB03F842EA004398450FD9EB180CF1B8
:1062B000FF3204D2984502D9ACF102022B44A3EB81
:1062C000080342EA014191E76146E2E76246F6E7E8
:1062D0006046A2E76346B6E7834205D90EB1C6E938
:1062E00000700021084676E7B3FA83F181B9834252
:1062F00001D3BA420AD8BC1A60EB030301209C46C2
:10630000002E68D0C6E9004C002164E70846F7E794
:10631000C1F1200C8B4022FA0CF41C4302FA01F567
:1063200000FA01F327FA0CF220FA0CFB4FEA1449A9
:106330001343BBFBF9F81FFA84FE09FB18BB1A0CC8
:1063400008FB0EFA42EA0B42924507FA01F73ED9E2
:10635000A21808F1FF3004D2924502D9A8F1020038
:106360002244A2EB0A029BB2B2FBF9F809FB182205
:1063700008FB0EFE43EA024296452AD9A21808F10C
:10638000FF3304D2964502D9A8F10203224443EA1E
:106390000040A0FB0593A2EB0E029A42CE4698461F
:1063A00002D306D14F4504D2B9EB050E63EB0408C6
:1063B000013886B1B7EB0E0362EB080707FA0CFC55
:1063C000CB404CEA0303CF40C6E900379CE7404688
:1063D000C7E74346DBE73146FDE60000000000006A
:1063E00073B53F4DD5F85431996811F0010121D1B1
:1063F00001AA40F6034007F089F8044600286CD152
:10640000019B9B681B7893B9BFF35B8F2B4653F8B6
:10641000CC2FBFF35B8F02F00502BFF35B8F53E815
:10642000001F43E800200028F9D1BFF35B8F0198DB
:1064300019F060FA01AA002141F2030007F066F8A2
:106440000446002849D1019B264899680822013159
:1064500026F0E9F8019819F04DFA214601AA41F217
:10646000010007F053F80446002836D101988368EC
:106470005A7885F86820D9789A7842EA0122A5F8F6
:106480006A201A7985F86920197ADA7942EA0122B4
:10649000A5F86C205A799B7942EA0323A5F86E305F
:1064A00019F028FA214601AA41F2020007F02EF85D
:1064B000044690B9019B0C4899684022013126F0AE
:1064C000B2F8094826F0B5FA019819F013FA95F8D0
:1064D00074305A060AD46FF01204204602B070BD20
:1064E000100000208000002088000020214601AA22
:1064F00042F2030007F00AF804460028EDD1019BA0
:10650000B94899680822013126F08DF8019819F0F0
:10651000F1F9214601AA42F2020006F0F7FF044613
:106520000028DAD1019B9B68B3F80120A5F8FC2074
:1065300091B221B1DA78AD4811462FF064F9019893
:1065400019F0D8F995F8746016F0200600F0218152
:1065500095F894301B0712D501AA002142F21C00C5
:1065600006F0D4FF04460028B7D101988368D3F819
:106570000120D3F80530C5E9362319F0BBF995F8A9
:10658000D0309E0623D50DF10201684626F0BFFCEF
:1065900004460028A1D1042142F2240006F05AFF4B
:1065A0000646002800F0FC800421083029F046F956
:1065B000BDF800300380BDF80230438022463146EA
:1065C00042F2240006F0A2FF0446002885D195F887
:1065D000D0305C0610D501AA002142F22A0006F054
:1065E00095FF044600287FF478AF019883685B78B4
:1065F00085F8183119F07EF9082142F2010006F001
:1066000029FF0446002800F0CB800821084429F027
:1066100015F995F8D01011F0400F024640F2022310
:1066200008BF032388074CBF43F02C0043F00C0045
:106630008B0695F8D13048BF40F0400013F0090FA9
:1066400095F89A3018BF40F4006003F00603CE07B7
:1066500048BF40F01000062B08BF40F4C070002176
:1066600026F038FB2146002242F2010006F04EFFE0
:10667000044600287FF431AF95F87430B5F8FC106B
:10668000980600F1A280D9B901AA41F2050006F0EE
:106690003DFF044600287FF420AFB5F8FC3063B915
:1066A000019B9B685A78997842EA0122A5F8FC2060
:1066B0009A884E4811462FF0A6F8019819F01AF959
:1066C000082140F6014006F0C5FE0446002867D0C8
:1066D0000821084429F0B2F895F8D030D9070246CD
:1066E00079D53FA1D1E9000126F0F4FA2146002234
:1066F00040F6014006F00AFF044600287FF4EDAEA4
:10670000014601AA4FF6014006F000FF044648BBCF
:10671000019819F0EFF8214601AA4FF6024006F061
:10672000F5FE0446F0B9019B314899680222013117
:1067300025F079FF019819F0DDF895F8B9305B077D
:1067400010D501AA21464FF6034006F0DFFE48B9F6
:10675000019B284899680122114425F064FF0198A3
:1067600019F0C8F826F03FFE044600287FF4B5AEC5
:1067700008F094FD044600287FF4AFAEEB79002BBF
:106780003FF4ABAE04211C4826F023FA07F09CF935
:10679000A3E6022140F66D4006F05CFE044610B907
:1067A0006FF0680499E60221083029F047F80123C8
:1067B000037046702146324640F66D4006F0A6FE54
:1067C000044600283FF4C4AE87E600297FF478AF82
:1067D0006FF0040481E609484FF0005184E700BFE0
:1067E0009088000200800020E000002010010020BE
:1067F000C9000020C8000020DC0000201088000232
:106800002DE9F041D0E90B35866A5C193034A64297
:106810008846174618D81C4DA3FB050118A3D3E9D9
:106820000023FFF76DFCA41B20F07F40C8F8000098
:1068300013A3D3E90023A4FB0501FFF761FC20F0BB
:106840007F403860BDE8F0810F4C0DA3D3E90023F1
:10685000A6FB0401FFF754FC05F1300120F07F4056
:10686000C8F8000006A3D3E90023A1FB0401FFF749
:1068700047FC20F07F403860BDE8F081AFF3008036
:106880008D49FD1A0700000000CA9A3B0000000075
:106890002DE9F04F724C91B094F86A50002849D01D
:1068A00015F0010540F0CC8094F82500FF2300F09E
:1068B000030084F8263015F00FFD94F86A004707AE
:1068C00029D494F8292094F8353004EB820204EBA3
:1068D0008303D76AD3F8389087B16148394610F0FE
:1068E0004DF83B785E0605D506210BF0D3FB00285A
:1068F00000F00C825A48494610F040F83B7813F0FB
:106900000E0F2CD1236A002B00F0B6800C252846F0
:1069100011B0BDE8F08F2A4604F16B01C0F3C0004E
:1069200015F040FEFF2884F82600CAD0284615F04E
:10693000EDFCC6E715F00105E9D0236A53B193F8E1
:10694000202042F0020283F82020236A93F82030AE
:10695000DB07DBD411B0BDE8F04F0FF027BD94F892
:1069600024300121C3F342030CA88DF830300BF022
:106970001DFD002869D099F80110024638460FF035
:10698000B9FD3849B4F8689031230026A360A0FB14
:10699000010131A3D3E90023C4E9056626706660CE
:1069A000E660FFF7ADFB20610CF010FE8046B9F108
:1069B000000F07D13E7806F00F06A6F10106B6FAE1
:1069C00086F6760994F82400236966F3000010F037
:1069D000010684F8240040F06981234A2348049387
:1069E00003F24713A9FB000106940296136091235A
:1069F00003FB09111E4B07931E4B05934FF6FF73C4
:106A000009924FF0020903930EAF13A3D3E90023B9
:106A1000CDF838900897FFF773FB4346CDE9006047
:106A20004A46304603210CF0AFFC39460EF01EFFFB
:106A300058B994F86A3043F0010384F86A3066E785
:106A40000025284611B0BDE8F08F236A002B3FF4E3
:106A50005DAF0FF069FC59E78D49FD1A0700000092
:106A60002C66002000CA9A3BA4660020002AE78416
:106A7000714D0300656503000EF042FE824600285A
:106A800000F04C810EF048FE8346002800F0438160
:106A900010F06AFE0646002800F03A814FF6FF73B8
:106AA000406F338506F11C030B93002800F03881FA
:106AB00006F1680206F164010BF0F8FAB6F86030EE
:106AC000994923F4EF6323F0070343F4887343F0F9
:106AD0000103A6F8603096F8393003F03F0363F005
:106AE0007F0386F8393096F87A3023F0070386F86A
:106AF0007A3096F83C3023F0070386F83C3096F85D
:106B0000D6304FF0000868F3000386F8D63006222E
:106B10004FF01B13C6E91631A6F8C020C6E912884B
:106B2000C6F87480A6F87880A6F82E80C6F8308063
:106B300086F83B80C6F85080A6F8C480A6F8C880C6
:106B4000A6F8D080A6F8CC80FF230DF1310106F124
:106B5000D7008DF831308DF832308DF833308DF824
:106B600034308DF835308DF836308DF8308025F0A2
:106B70005AFD96F8D61068F3410186F8D610FF2327
:106B800006220DF1390106F1DD008DF839308DF85E
:106B90003A308DF83B308DF83C308DF83D308DF833
:106BA0003E308DF8388025F03EFD96F8E430A6F8AA
:106BB000F08023F0070386F8E43086F8F280C6F808
:106BC0001481A6F81881A6F830810EF081F896F8A5
:106BD0004A31A6F8488123F0030386F84A3196F833
:106BE0007A30A6F8508123F0180386F87A3096F8A8
:106BF000763186F8538123F0070386F8763196F8CC
:106C00009631C6F854A168F3451386F8963196F884
:106C1000BE31A6F8748168F3C303002286F8BE3142
:106C20000023C6E94E01C6E9502386F8E580A6F8A0
:106C30009481C6F8EC80A6F8BC81A6F8C88111F052
:106C400001F9A6F8D20011F003F9D6F8CC21374BA0
:106C5000A6F8D4001340C6F8CC3111F0FFF896F82E
:106C6000D03160F3020386F8D03111F0FDF806F15F
:106C70001C03236296F8D031C6F8D48160F3C503B3
:106C8000C4E918ABC6E97888C6E97688C6E90588FC
:106C900086F80080F66186F8D03116F0C7FB002830
:106CA0003FF45DAE0FF040FB032530E60020204AA4
:106CB000DFF88090049302260EAF01930592032122
:106CC000CDE902000694434600900897CDF81C9049
:106CD00032460E960CF0AEFB39460EF0C7FD00288A
:106CE0007FF4B3AE144A05924AF2D8320092CDE94D
:106CF0000300CDE90100CDF81C90089706944346A7
:106D0000012203210E960CF095FB8EE61225FEE57E
:106D100058460EF007FD50460EF0F8FC0725F6E544
:106D200006F16C007067C3E6480148010000FFF6F9
:106D300065650300714D0300B960030000000000A9
:106D400070B590F824308AB0C3F342030D46044670
:106D500001210DF1230016468DF823300BF026FBA0
:106D60007178024628460FF0C5FB1D491AA3D3E9E6
:106D70000023A0FB0101FFF7C3F9236998420546F0
:106D800020D21B1A00220192164A0293164BA21A15
:106D9000A3FB02320221920900230A4409AE0991A1
:106DA00012490591CDE903330321D2B2069600932F
:106DB00018460CF0B1FB31460EF058FD48B925617C
:106DC0000AB070BD02D9C21A0023DCE700200AB065
:106DD00070BD0C200AB070BD8D49FD1A070000007F
:106DE00000CA9A3B2C66002089888888714D030070
:106DF0002DE9F04FC38D468E1E4490F81A31B6B27D
:106E0000314413F007038BB004461FFA81F940F0B8
:106E1000A381B0F8F470A9EB07011FFA81F9090406
:106E200000F10C82904690F93920002AC0F2358199
:106E300094F8F03084F8F13094F8942194F8953176
:106E400094F8181184F81911934206D094F89631E9
:106E500003F00F03062B00F04782B14BD4F8145116
:106E60001A68944204BF00221A60002D00F0448189
:106E70002868002800F04081B4F81C31B4F82AC01A
:106E80004268C4F814216345B4F81E21B4F82011F7
:106E900000F01781B4F828C0EB8318232B7100236E
:106EA000A5F806C02A8469842B7729460EF040FC99
:106EB0000EF048FCA368002BC0F2F780608DB4F898
:106EC0001C5110FB09F080B2B0FBF5F115FB01F38A
:106ED0009BB298421FFA81FAC0F0CE8005FB1101E7
:106EE00040F2E2438F4889B203FB01F1A1FB0001AC
:106EF00089A3D3E90023FFF703F9A8EB0008E38D8A
:106F00001F4494F93930BE1B564440F2E247002B2F
:106F1000E68507FB05F6C0F29681834A83498448DB
:106F200040F69C4323F06EFA404080F311884FF006
:106F3000030002DF0027B3467E4AB4F820317E49C1
:106F4000B4F81E01A0853244B2FBF6F2A4F8C620C4
:106F500042F2107202FB03633144013BB1FBF6F1D4
:106F6000B3FBF6F6B4F81C3163858AB2831D9A42EE
:106F7000A4F8C260A4F8CE2004DDC0F57F43FA3344
:106F80001A4492B294F81A31A4F8CA201B0744BFDD
:106F90000023A4F8C4300221012018F0EFF90022E8
:106FA0000221814601200BF0D1F864494FF4F872B8
:106FB00020460BF05BF800F1030A5FFA8AFA604B97
:106FC00000945246012100200CF0BEFA30F002037A
:106FD0000CD0554A5B49564840F6CB4323F012FA91
:106FE000404080F311884FF0030002DF4D4EABFBB1
:106FF000066B49A3D3E9002330465946FFF780F8D2
:10700000089420F07F4506944F4823690493A5FB1C
:107010000001072303FB05114C4B07934C4B0593D1
:10702000301A4FF6FE736BEB010103934FF47A7243
:107030000023FFF765F84346CDE90150009752461B
:10704000012100200CF0F6F930F002030CD0364A92
:107050003C49374840F6E54323F0D4F9404080F3FB
:1070600011884FF0030002DFB9F1000F40F03681C4
:1070700000200BB0BDE8F08F1B1A2A4940F2E24015
:1070800003FB00F0A0FB010123A3D3E90023FFF7DA
:1070900037F820F07F40804431E790F8E520002A5F
:1070A0003FF4C6AE80F8E530C6E6E168626823F0DA
:1070B000004391422CBF88449044A360A8EB03088E
:1070C000FCE6B4F82CC094457FF4E4AE40F2E24C08
:1070D0000CFB03FE42F2107C0CFB01EC0CF1FF3CBC
:1070E000BCFBFEFCB4F8C2E01FFA8CFCE6457FF462
:1070F000D1AE01232B71D8E60B4A16490C484FF448
:10710000426323F07FF9404080F311884FF0030081
:1071100002DF2868B0E600BF8D49FD1A07000000B5
:10712000C466002000CA9A3B7878050064740500A4
:1071300004740500FF5962027FC3C9019041002019
:10714000D96F0300587905008D49FD1A816F03003E
:107150009DB603004479050001200EF0F9FA0646B9
:10716000002800F0CF8074480AF04AFF0546002846
:1071700000F0C880714B1A68002A00F0BB800EF046
:1071800005FB2B793268D4F81411516043F00303E6
:10719000C4F8146100202B710C236B71E87194F812
:1071A00028312B72664AD4F82431A18DA2FB032327
:1071B0009B0AA5F80930B4F81C31A5F80B30B4F8D7
:1071C0001E3194F81A21A5F80D300631B4F820319B
:1071D000A5F80F304944D4F8D43189B260F30202E3
:1071E000A4F8F41084F81A21A5F81110BBB194F892
:1071F0007621960713D494F8CF21D0070FD4D4F872
:10720000E0219342D4F8D8217FD062B91A7902F0F4
:107210000302032A00F08580C4F8D83105E0D4F8D1
:10722000D821002A68D0D4F8DC311A682A601D60A1
:107230002B68C4F8DC510BB9C4F8E4516FF0760048
:107240000BB0BDE8F08F226CA36C02FB1933A36472
:1072500016F03EF9054694F8E400C0F3C20016F0BB
:1072600039F9054406FB05F5364B94F8282105F558
:10727000742505F23F25A3FB0535AD0C07FB02F293
:10728000A36C226505FB0AF072080344963A934208
:1072900028BF13462564A6EB050B2B4DC4E911232B
:1072A0000023C4F8EC30A0FB050121A3D3E900239F
:1072B000FEF726FF2249A8EB0008D4F82401A1FB21
:1072C0000030800A07FB00F019A3D3E90023A0FBDC
:1072D0000501FEF715FF20F07F472DE60122022170
:1072E00010460AF033FFC3E6002384F89521A4F882
:1072F000C830B2E51C6042E72B60C4E97555C4F89C
:10730000DC5198E76FF06800B3E61968C4F8E01143
:10731000002A88D11A682A601D602B68C4E9765556
:1073200089E7DA79032AF5D00A2A7FF475AFF1E705
:107330008D49FD1A0700000058670020C466002030
:107340005917B7D183DE1B4300CA9A3B00000000E7
:107350002DE9F04F0B68D2F800B01B6897B08A4651
:107360000A93037F00F11E01C3F380130446154600
:1073700014A806228DF8473025F055F99AF8110027
:107380000C90FF280DF1480900F083804A460DF16A
:10739000470114F095FC9DF847600236F6B28DF86F
:1073A00047600A9B277FD4F800C0CDF82CC003F1BA
:1073B0007108FF094B4606F001024146384610F0BD
:1073C00059FD00284BD19BF8D6200D9066F3410261
:1073D0008BF8D620494606220BF1DD0025F023F973
:1073E0009BF8D62067F3000241468BF8D6200BF1BC
:1073F000D700062225F017F92F1D032204F12E01D4
:1074000005F1080025F00FF905F11806042204F132
:107410002A01384625F007F9052204F13A013046E1
:1074200025F001F9304605210AF0C0FF6A7F94F883
:107430003F1000F03F0060F305026A77C1F30402D9
:10744000AA77A68EEE810128B6B201F01F0206D9F6
:107450001B3202F01F020B2A01D80D9B0EBB0A9BA8
:10746000E6680B9800225A6195F82030012762F3F4
:10747000000385F82030214627710EF059F9306855
:10748000377131460EF054F90EF05CF917B0BDE8D3
:10749000F08F062214A9484625F0C5F89DF84760EC
:1074A0007FE7DAF80020536094F8372094F83630FC
:1074B00043EA02232B829BF8E430628E0E92490944
:1074C00061F3C5038BF8E43016F002F80D909BF8D9
:1074D000E400C0F3C20015F0FDFF0D9BC24A298AEB
:1074E00040F2E24808FB06F6034406FB03F303F50B
:1074F000742303F23F23A2FB03239B0C6B6294F8DB
:107500003130BA4A08FB03F3AB637308963BAB62B6
:10751000B4F83880B64B42F210703244B2FBF6F247
:10752000ABF8C6201FFA88F200FB02623344013A2E
:10753000881DB2FBF6F2B3FBF6F3ABF8C2209AB2A9
:107540008242ABF8CE2004DDC1F57F41FA310A4416
:1075500092B2ABF8CA20394604220BF1E80025F0BC
:1075600062F8234613F81C2FC2F34011DA070F917B
:107570000D9100F100814FF48073A3830A9B93F86F
:10758000260015F029F90146062204F12B000029F6
:1075900000F0E98004F1240125F045F80C9BFF2B55
:1075A00004F1250000F0E28014A9062225F03BF842
:1075B0009DF84730A3774946062204F11F0025F0C5
:1075C00032F89BF8E430EA896286C3F3C2032A8A60
:1075D000A28684F83830A4F83680584610F0D0F8E7
:1075E0002146A881E080DAF804400B980EF0A0F85C
:1075F000AB89E3801B2323710D9BD4F80080002B03
:1076000040F0CE809DF83C302377214640460EF076
:107610008FF80EF097F895F84500B5F84040B5F8AA
:107620004270012100F0070015F062FD274407F5C4
:10763000E177391881466F4800273123CBF80830AD
:10764000A1FB000166A3D3E90023CBF80470CBF8BB
:107650000C70FEF755FD6B6A0E9ADAF80C4020F0BC
:107660007F40F61A40F2E24303FB024402213A460D
:10767000CBF8100001200AF069FD0A9D28460FF0A2
:1076800039F9821C5C4B0095D2B2384601210BF0CF
:107690005BFF04F2B2440128A4EB090400F08B80E4
:1076A0000A9B93F82430DB0772D4584610F068F830
:1076B000DFF84091A6FB098649A3D3E900230546DC
:1076C00031464046FEF71CFDDAF80830CDF818B018
:1076D000A3F13A0A494B0793494B05934FF4E473DE
:1076E0000893DBF81030049320F07F4745480023CF
:1076F000A7FB000103930723B8EB000003FB07116E
:1077000066EB01014FF47A720023FEF7F9FC34A313
:10771000D3E90023CDE90170A4FB0901FEF7F0FCD9
:10772000033520F07F40EDB2009053462A460121F8
:1077300000200BF07FFE30F002030CD0324A3349B8
:10774000334840F2C91322F05DFE404080F31188B7
:107750004FF0030002DF0122022110460AF0F6FC7E
:1077600017B0BDE8F08F24F069FF17E7062200216B
:1077700024F064FF1CE7244A26492548F12322F01F
:1077800041FE404080F311884FF0030002DFF2E633
:10779000002301220093184611460BF0D5FE84E722
:1077A0006B7F43F040036B77384614F095F8012364
:1077B000E883237729E70EF097F80A9B83423FF48A
:1077C0006FAF114A1449124840F29F2322F01AFE6B
:1077D000404080F311884FF0030002DF60E700BFF4
:1077E0008D49FD1A0700000083DE1B43FF5962022A
:1077F0007FC3C90100CA9A3B61B6030031B60300DA
:107800009DB603008D49FD1A6C7A05005879050074
:1078100004740500EC740500C87A0500000000003F
:107820002DE9F04F8FB0DFF8D8800A900DF13701C5
:107830000DF136000DF0F4FF324F9DF836A09DF8A3
:1078400037B00BF0C3FED8F80040A4FB07542AA3BE
:10785000D3E90023814621462846FEF751FC0A9BC6
:107860000B90D8F804000693274B0593002622A31B
:10787000D3E90023A0FB0701CDE90766FEF740FC32
:107880000B9B20F07F40CDE90360204823F07F4729
:10789000A7FB00010723281A03FB071164EB010172
:1078A0004FF47A720023FEF72BFC0096CDE90170AD
:1078B0004B465A46032150460BF0BCFD30F0020403
:1078C00016D1134A1348002321F0F0F868B19DF84F
:1078D00037209DF836000094234603210BF034FE38
:1078E0006FF073000FB0BDE8F08FD8F80C00F9E727
:1078F0006FF08B00F6E700BF8D49FD1A070000000E
:10790000A47B002000CA9A3B611604008D49FD1A31
:10791000447B0B00B47B002038B50F4D04460BF0C0
:1079200055FEA9680BF054FE6968B0FBF4F40444FA
:107930000A4807A3D3E90023A1FB0001FEF7E0FBFF
:1079400020F07F40844294BF0020012038BD00BF5A
:107950008D49FD1A07000000A47B002000CA9A3B55
:10796000014821F0E9B900BF7002002007B52EF0F0
:1079700091F94FF47A72A0FB020302FB0133C00BB2
:1079800040EA4340064B4FF400421860002305488C
:10799000CDE9002321F074FF002003B05DF804FB63
:1079A000D04F0020801A002008B5044B187800F052
:1079B000D5F9BDE8084022F063B800BF0882002076
:1079C000044B1A78824202D01870FFF7EDBF0020F6
:1079D000704700BF0882002008B52EF05BF94FF415
:1079E0007A72A0FB020302FB0133C00B40EA434062
:1079F000034B1860BDE808400020FFF7E1BF00BF5F
:107A0000D04F002008B52EF045F94FF47A72A0FB54
:107A1000020302FB0133C00B40EA4340064B1B68E4
:107A2000C01A47F23053984204DDBDE808400120F7
:107A3000FFF7C6BF08BD00BFD04F002030B5184CBF
:107A40008DB00022002303A9204620F0C1FE08B11A
:107A50000DB030BD059DDDE9030122F00EF8B5FA49
:107A600085F56D09FF238DF8183007908DF82050AB
:107A70002EF010F94FF47A72A0FB020302FB0131E1
:107A8000C00B40EA4140C90B8DE8030006ABCDE9CD
:107A90000A010FCB00F078F921F0F2FFD1E700BF27
:107AA000701C00201FB583F00103CDE90112039380
:107AB0000022002301A9044820F034FE034821F0ED
:107AC0003BF905B05DF804FB701C0020D44F00208A
:107AD00010B520F0FDFB044678B10A490A482DF0A4
:107AE00012FFA36809491B6820469847A3689B6852
:107AF00033B120469847002010BD6FF01500FBE71A
:107B00001846F9E73D7A0200D44F0020A57A02001A
:107B10002DE9F041134B144EA3EB060807460D4622
:107B200006EBC106C8F3C708A84504DC00243846A4
:107B30002EF05DFA13E032683B689A420AD173680E
:107B400038461B68984701280446EFD0022804D025
:107B50000028ECD101350836E6E73D7100242046C7
:107B6000BDE8F081ECFA050064FA05000E4B0F4AFF
:107B7000D21A70B4C2F3C7020C4600218A4203DC59
:107B80006FF0150070BC70471E680568AE4201F1C9
:107B9000010106D15D68A54203D170BCC9B2FFF7EF
:107BA000B7BF0833EAE700BF64FA0500ECFA050046
:107BB0000D4B0E4AD21A70B4C2F3C7020024A2427F
:107BC00003DC6FF0150070BC70471E680568AE429C
:107BD00006D15D688D4203D1E1B270BCFFF798BF5A
:107BE00001340833EBE700BF64FA0500ECFA050046
:107BF0002DE9F041466807690546306820F068FBCA
:107C00003860002845D096F805E031794EF40072CE
:107C1000D0F810C0D0F80880012303FA01F4DCF892
:107C200000301EF0010F14BF2343A343CCF80030F3
:107C3000D8F80030984778BB04F022F8184803F0D1
:107C400061FF044610BB174917482DF082FE174804
:107C500003F002FF7B795BB901233B710022002313
:107C6000114821F0D1F8AB681B680BB12846984742
:107C7000F18859B140F2E7304FF47A72002300EBFB
:107C8000C1300021FEF73CFA21F0CEFB2046BDE8D2
:107C9000F0816FF01504F9E76FF00404F6E700BF18
:107CA00080020020B17C0200081F002030910500F6
:107CB00030B58BB0084C204620F00AFB0569074A16
:107CC00023462821684604F01DFE0122291D68462E
:107CD00003F088FE0BB030BD3A91050044910500D9
:107CE00008B54FF4F0120023024821F0C1F800EA71
:107CF000E07008BD081F00202DE9F3410C46164630
:107D0000134901AA1F4623F097F9D8B1DDF8048082
:107D1000B8F1000F16D1012C17D10E4D2246291DA6
:107D20003846B047002806DB6C712C790A482CB124
:107D300021F0C1FE404602B0BDE8F08121F0CDFE49
:107D40002046F8E76FF00100F5E76FF01500F2E765
:107D50003A910500E44F00204C62050010B504463E
:107D60000C202EF04BF9024A0260047210BD00BFD5
:107D7000506805000268034B9A420CBF083000208F
:107D8000704700BF5068050084B070B504AC84E84B
:107D90000F0020202EF032F90446084B44F8083B2F
:107DA00004AD06460FCD0FC495E8030084E8030038
:107DB0003046BDE8704004B0704700BF546805000D
:107DC0000268034B9A420CBF08300020704700BF86
:107DD0005468050010B504460C202EF00FF9024A35
:107DE0000260047210BD00BF5C68050082B038B547
:107DF00004A981E80C000546114820F069FA044600
:107E0000A0B16B68012B0CD0022B05D0A3B9BDE843
:107E1000384002B021F087BE21F08CFE00282046B9
:107E2000F5DCBDE8384002B021F076BE6FF004000A
:107E3000BDE8384002B070476FF08500F8E700BF3A
:107E40003A91050082B010B502A981E80C00044601
:107E50000A4820F03DFA58B16368022B06D121F0A0
:107E600069FE0028CCBF002001206060002001E0F6
:107E70006FF00400BDE8104002B070473A91050071
:107E8000094A52F82030013342F82030074A0123D2
:107E9000834010780343DBB21370054A5078537067
:107EA000181A18BF01207047EC4F002009820020EB
:107EB000E51900200D4A52F82030002B12DD013B5D
:107EC00042F820300A4A2BB901238340107820EA77
:107ED00003001070074B107859785870401A18BF7B
:107EE000012070476FF01500704700BFEC4F002075
:107EF00009820020E5190020044A012312788340FA
:107F0000D8B213401B1A58425841704709820020CA
:107F10000449054B09785A7808435870801A18BFED
:107F20000120704709820020E5190020044A054B12
:107F300050781B785370181A18BF0120704700BF83
:107F4000E519002009820020A0F1E003072B03D8E7
:107F50002030C0B2FFF794BF074B002213F8011B7B
:107F600021B10132062AF9D10020704703F8010C33
:107F70000028F6D0F8E700BFE8190020A0F1E002E1
:107F8000072A10B4034604D8203010BCC0B2FFF753
:107F900091BF064A0620002112F8014BA34208BFF8
:107FA00002F8011C0138F7D110BC7047E819002015
:107FB000A0F1E003072B03D82030C0B2FFF79CBF2D
:107FC000064A002312F8011B884204D00133062B15
:107FD000F8D1002070470120704700BFE819002049
:107FE00002480822002124F029BB00BFE619002026
:107FF00010B50849002301EB4302B2F8014024B157
:108000000133062BF7D1002010BDA2F80100002893
:10801000F6D0F8E7D819002030B50023074C1946F0
:1080200004EB43020133B2F80150854204BF5170A2
:108030009170062BF4D1002030BD00BFD81900206C
:1080400002480C22002124F0F9BA00BFD9190020FF
:10805000074A002302EB4301B1F80110814204D02A
:108060000133062BF6D1002070470120704700BF76
:10807000D819002000487047E519002000487047D3
:10808000D81900202DE9F0410B4E337883B10B4C09
:10809000DFF82C80002542F20F772046414601355B
:1080A0002DF057FC0A2D44F8207C04F15804F4D13B
:1080B00000203070BDE8F081EE190020581F00202C
:1080C000139D040010B5064A0023114652F8044BD4
:1080D00014B941F8230010BD0133282BF6D1FAE77B
:1080E0000C500020F0B5C169037E8A7C93B00AB1C0
:1080F000032B2ED0023B0022012BD0E90467CDE9EF
:10810000032205680692059225D84B6803934368BD
:108110000493CDE90867079506AB0FCB0AAC84E85A
:108120000F00CDE90C670B9594E80F000EAD85E8C4
:108130000F00039820F0CCF858B183689C6844B1D4
:1081400012AB13E903008DE8030003A895E80C00C7
:10815000A04713B0F0BD8B68039383680493024B70
:10816000C3E902671D60D4E7000000202DE9F84351
:10817000037E002B66D1394C2368834262D1C369E8
:108180005A7C032A25D8DFE802F0020D1D5F04297E
:108190001FD8DFE801F01C031E051C00022217E0B7
:1081A000032215E0042914D801A252F821F000BFDF
:1081B000CF810200D38102009D810200A1810200D3
:1081C000CF8102000329EBD011F0FB0F01D1012276
:1081D0000276027EB2B3596900290DDD456D6A1C35
:1081E0000AD01833002253F8046BB54204D0013290
:1081F0009142F8D10123037600232360FFF772FF39
:10820000D4F80080B8F1000F1CD1154FDFF854905E
:10821000282657F8045BADB1236847F8048C23B1D6
:108220004FF4A470002121F0FFF82846FFF7C8FDA5
:1082300010B9284601F02CF849462846FFF7B8FC4B
:10824000013EE6D1BDE8F8830129A7D002D8002974
:10825000BDD0BEE703390129B9D9BAE7AC50002037
:108260000C500020CC68050082B02DE9F04708A929
:10827000054681E80C00006820F02AF82F490C68B8
:1082800084B9D5E90189DDE90AEC099A2C4E582711
:1082900042F20F7A07FB04F5AB59534507D001347E
:1082A0000A2CF7D1BDE8F047002002B070474768BC
:1082B00072517019002303764FF0FF3343653B7C06
:1082C0000860C0E90189C0E904EC1E49C76113B91F
:1082D0000B689A420CD1D1E90231FA68D31841EB0C
:1082E000E2729E457CEB020302DA0421FFF73EFFB7
:1082F000582303FB0464396824690C442DF0CAFC3C
:108300004FF47A72A0FB023002FB0100DB0B43EA60
:108310004043E11A21EAE17140F2E7304FF47A720A
:10832000002300EBC1304914FDF7EAFE2035024678
:108330000B46701920F068FDB4E700BFAC50002078
:10834000381F0020000000202DE9F0470546FFF708
:1083500037FD002869D02846FFF732FD494ED0F896
:1083600004800446002742F20F794FF0020A336876
:1083700098450CD04B450AD0F3699B7C3BB1337ECA
:10838000032B04D186F818A03046FFF7ABFE013767
:108390000A2F06F15806EAD13B4F386810B9002081
:1083A000BDE8F087227A63681AB1426D013208BFD6
:1083B000436502689A42F2D0C3691A68D0E9043171
:1083C000D31841EBE272D4E90461B34272EB0103CA
:1083D00002DA0321FFF7CAFE267A66B12846FFF7C4
:1083E00071FE237A3868002B14BF01210221FFF7A8
:1083F000BDFE0220D4E7D4F80490DFF89080B246A6
:1084000058F8040B70B1FFF7DBFC30B143689945B5
:1084100003D1037A002B18BF06460AF1010ABAF10C
:10842000280FEDD1002ED9D1B9E7284600F030FF52
:108430000028B4D0284600F02BFF837A9BB1436814
:10844000E03B072B02D80378072B0CD0104BD0E968
:108450000412D3E902648E429441BEBFC3E9021202
:108460004FF000441C60084B1B68002B97D04368FA
:10847000E03B072B93D80378072B90D12846FFF7D2
:1084800021FEB6E7381F0020AC5000200C50002021
:108490000000002082B02DE9F0412B4E06A981E8B2
:1084A0000C000024582202FB04F081598B4239D180
:1084B0003518203030442DF058FAEB691A68D5E9A8
:1084C0000431D31841EBE27208998B42099B72EB9D
:1084D0000303804603DA03212846FFF747FE5827A7
:1084E00007FB046700212846FFF740FEFB699B7CE1
:1084F00053B13B7E032B07D1284621F01BFC0123FF
:108500003B762846FFF7EEFD284621F013FC18F1D4
:10851000770F4FF058030DD103FB0464012384F857
:10852000503002E001340A2CBDD1BDE8F0410020FA
:1085300002B070475C43331942F20F72325100228D
:108540001A7683F85020F0E7381F002010B5094B49
:1085500000211A461C68844205D15C7C1CB9582055
:1085600000FB012010BD01310A2903F15803F1D1AC
:108570000020F7E7A82200202DE9F0410B4E3378C8
:1085800083B10B4CDFF82C8000254FF0FF372046DD
:10859000414601352DF0DDF90A2D44F8207C04F127
:1085A0005804F4D100203070BDE8F081EF190020AC
:1085B000C8220020239E04002DE9F84F074600F052
:1085C00067FE054610B90020BDE8F88F3B4CDFF888
:1085D000F090DFF8F0A004F55C7800262368013302
:1085E00052D0E3684946986823F0E6FF68B96368AB
:1085F0006A6899B2914208D12988C3F307428A4236
:1086000003D12A7AB2EB136F3ED0D4E9062352EAA3
:1086100003010DD0D5E9040182428B4108DA2046DE
:1086200021F054FCD4E90623204621F0C1FB2BE0C5
:10863000AB7A83B3E3685B7933B16B68E03B072BBC
:1086400002D82B78072B1FD094F85030E3B9636D14
:10865000D3B9237C9BB1204621F038FCE36893F822
:1086600004B0BBF1000F0AD01EB951463846FFF7DF
:108670007DFAD5E90423204621F09AFB5E462B883B
:1086800084F850306B68636558344445A6D1002E99
:1086900099D0022098E7237C002BF5D094F8502045
:1086A0002B889A42F0D1626D6B689A42ECD12046D9
:1086B00021F00CFCD5E90423B6E700BFA822002076
:1086C000E8910500E468050082B02DE9F04F93B011
:1086D0001CA9044681E80C00DDE91E6700681D4600
:1086E0001FF0F6FDD0F804802846FFF72FFF8146E3
:1086F00030B121F0EBFB32463B46484621F058FBB7
:10870000284A002396461168013101D1517C51B1AC
:1087100001330A2B02F15802F5D1002013B0BDE855
:10872000F04F02B070475822D4E901C05A430EEB13
:1087300002034FF0000A4FF0000BC3E901C04EF8EE
:108740000250C3F80C80198283F850105965C3E9B0
:1087500006ABCDE90867D8F808300795CDE90501E3
:10876000CDE9033C06AB0FCB0AAC84E80F00CDE9A2
:108770000C670B9594E80F000EAD85E80F00039889
:108780001FF0A6FD0028C8D083689C68002CC4D0C8
:1087900012AB13E903008DE8030003A895E80C0071
:1087A000A047BAE7A8220020124B2DE9F04D06465B
:1087B000002010221F460546D3F800C0BCF1000F70
:1087C00013D0D3E902E4764571EB04040FDAD7E95C
:1087D00002AB040107EB0018C8E902AB47F804C07C
:1087E0000130013A03F11003E6D1BDE8F08D1D60C0
:1087F000F7E700BF1826002070B50024084D264674
:1088000055F8040B38B145F8046C34B921F03BF944
:108810000134082CF4D1204670BD21F031F9F7E77E
:10882000D85300202DE9F041066A154F0021B142CE
:1088300023DA50F82150072D1FDC07EB851C024678
:1088400000235CF8044B2CB903EB0513013147F806
:108850002320ECE7D4F820E0D2F82080C64509DBDD
:1088600005D1D4F838E0D2F83880C64502DB4CF8A0
:10887000042C22460133102BE3D1BDE8F08100BF68
:10888000D451002008B5424942482DF062F84248D0
:10889000FFF7C8FF4148FFF7C5FF4148FFF7C2FF98
:1088A0004048FFF7BFFF4048FFF7BCFF3F48FFF7D6
:1088B000B9FF3F48FFF7B6FF3E48FFF7B3FF3E481A
:1088C000FFF7B0FF3D48FFF7ADFF3D48FFF7AAFFB8
:1088D0003C48FFF7A7FF3C48FFF7A4FF3B48FFF7E2
:1088E000A1FF3B48FFF79EFF3A48FFF79BFF3A483E
:1088F000FFF798FF3948FFF795FF3948FFF792FFD8
:108900003848FFF78FFF3848FFF78CFF3748FFF7ED
:1089100089FF3748FFF786FF3648FFF783FF364861
:10892000FFF780FF3548FFF77DFF3548FFF77AFFF7
:108930003448FFF777FF3448FFF774FF3348FFF7F9
:1089400071FF3348FFF76EFF3248FFF76BFF324885
:10895000FFF768FF3148FFF765FF3148FFF762FF17
:108960003048FFF75FFF3048FFF75CFF2F48FFF705
:1089700059FF2F48FFF756FF2E48FFF753FF2E48A9
:10898000FFF750FF2D48FFF74DFF002008BD00BF47
:10899000CD8E020018270020280600201805002090
:1089A0007C0700203C030020C4030020A005002019
:1089B000780B0020800300204C0400209C0900203C
:1089C000F406002038070020CC0C0020C00700204F
:1089D000100D002004080020540D0020480800203D
:1089E000680A0020D4040020000C0020B0060020FB
:1089F000F00A0020E4050020E0090020200E0020FD
:108A00006C06002014090020580900205C05002095
:108A1000240A0020AC0A0020980D00208C080020B9
:108A2000BC0B0020880C0020440C0020340B0020DC
:108A3000D008002008040020DC0D00209004002055
:108A40002DE9F04141488EB02CF08FFF0023404AC1
:108A5000194652F8230038B93E4E356855B90EB064
:108A6000BDE8F041FFF7C8BE42F823100433402BA5
:108A7000EFD1F1E738484FF0000C242303FB0CF151
:108A80000A58002A49D1354C354F236845500133E7
:108A900023602B6A01443C469046934201F1040155
:108AA00043DC6FF0030104EB830259430027082BDA
:108AB00043D1242303FB0C0006AC4068FFF780F988
:108AC000D5F838E00769CDE903E700234FEAE77CF2
:108AD0000293CDF814C002AB0FCB05F1240884E853
:108AE0000F00CDE907E7CDF824C094E80F000AAFE6
:108AF00087E80F00686A1FF0EBFB58B183689C6839
:108B000044B10EAB13E903008DE80300404697E83B
:108B10000C00A04700233360A1E70CF1010CBCF16D
:108B2000080FABD1FFF768FEF4E7D7F800E0C1F813
:108B300000E047F8048B0132AFE714680133002CE2
:108B4000B7D0545042F8047BB1E700BF182700208B
:108B500018260020D4530020B4500020B05000202C
:108B6000D8530020F8B50025294B6FF000442A4661
:108B7000196869B1D3E90201A04271EB050602F15F
:108B80000102BCBF04460D46102A03F11003EFD1C9
:108B9000204ED6E90023AB4208BFA24234D02DF0CC
:108BA00079F84FF47A77A0FB070307FB0131C00B7C
:108BB00040EA4140201A65EBD131012871F10003F0
:108BC00023DB2DF067F8A0FB070307FB0131C00B87
:108BD00040EA4140201A65EBD131C90341EA5041D6
:108BE00040F2E733C003C01841F100014FF47A723C
:108BF0000023FDF785FA02460B46074820F004F9EA
:108C00000028A8BFC6E90045F8BD00200146E4E7FA
:108C10001826002048270020182700202DE9F04FB3
:108C200095B00646FFF7CCF8054620B90025284642
:108C300015B0BDE8F08F047A002C00F0A6809D4F9F
:108C4000DFF874823C68D0E9049A002C4CD1456866
:108C500021F0D5F908EB851822466FF03F0558F84A
:108C6000043B83B193F9401001312ED0D3F83CE09E
:108C700003F14001A5EB030B0BEB010CE64520DCF7
:108C80000132102AEBD1002CD0D0FFF76BFF8B4BB9
:108C90003968184600221D4650F8047B002F5ED02C
:108CA0000132082AF8D1002544B1012C086A4FF09E
:108CB000000265D1824256DB814B1960FFF7C0FE8E
:108CC000B5E711F901CB8445D6D14FEA041C07EB77
:108CD000041147F80C301B6B13EB090C4AEBE373E0
:108CE000C1E902C30134CBE748465146FFF75CFDBA
:108CF0006B680024A44625464FEA03192A0107EBB6
:108D00000513B95809EB0C0258F8222089B182B139
:108D1000D1F838E0906B864513D10FCB07EB041EDA
:108D20008EE80F00013401350CF1010CBCF1100F7D
:108D300012D1234600220F2BA7DC190101337A50F0
:108D4000F9E7096A136A9942EEDC01DA0135EDE7C9
:108D50008645E9DCEADAF9E7102DCFD1E9E745F8F5
:108D600022600225A0E753F8044B002C3FF45FAFCC
:108D700001329FE753F8044B002C3FF458AF013207
:108D80008242F7DB4E4B196051E7FFF759FE6B68E3
:108D900006932B694B4D4C4F05900393AA463B68B5
:108DA0009C4235DB059B012B7FF740AF304620F01E
:108DB00067FE02253BE7D9F8040020B30792FEF7CF
:108DC000FFFF069B4068079A83421ED1D9F8040032
:108DD0002DF00DF90023C9F8043001220BF1010B2D
:108DE00009F10409D5F800C0DCF820008345E2DB76
:108DF0002435002A5BD09CF834308BB1B8F1000FD9
:108E000010D1012513E70490E8E74FF00008E5E7EB
:108E100000224FF00108A9469346CDF81080E1E703
:108E2000049B6BB300230893DCF838B0039BCDE9B7
:108E300009B34FEAE37ECDF82CE008AB0FCB0CADC5
:108E400085E80F000CF12406039BCDF834B0CDE982
:108E50000E3E95E80F000DF1400989E80F00DCF89F
:108E600024001FF035FA58B18368DD6845B114ABB2
:108E700013E903008DE80300304699E80C00A84789
:108E8000B8F1000FBDD0396801398C42396006D085
:108E9000242202FB01A102FB04A023F0C4FB3868DA
:108EA0002422002102FB00A023F0C8FBA9E7013423
:108EB00075E700BF18260020D4510020D8530020A9
:108EC000D4530020B4500020B050002038B5124CCC
:108ED000D4E9002313431ED02CF0DCFE0346D4E972
:108EE00000054FF47A74A3FB043204FB0122DB0B70
:108EF00043EA424383424FEAD23272EB05030ADB74
:108F00002946FFF751FC012801DCFFF799FDBDE878
:108F10003840FFF727BE38BD4827002008B5FFF7C7
:108F2000A9F8094A127822B1012A07D06FF085000A
:108F300008BDBDE80840092100F0CCBDBDE80840EF
:108F4000013000F0D5BC00BFF019002008B5FFF7D4
:108F500095F8094A127822B1012A07D06FF08500EE
:108F600008BDBDE808400D2100F0B4BDBDE80840D3
:108F7000013000F0E3BC00BFF019002002490348B3
:108F8000012202F02FBD00BF0A820020939205004B
:108F900010B502F075FE074802F0B4FD044630B982
:108FA000054806492CF0D5FC054802F055FD204641
:108FB00010BD00BF640E0020502700207D8F0200EE
:108FC000A792050038B500F0A1FAC8B100F04CFD39
:108FD00002281BD10F4B1C780F4D2B78A34217D0C2
:108FE000FEF7FEFFFFF72CF8FFF798FFFFF7AEFF45
:108FF00020462C7000F052F8BDE8384020F040BD0B
:1090000000F032FD841E18BF0124E5E70124E3E7E8
:1090100038BD00BF0A820020F019002070B50C4650
:1090200015460A4900221E4622F006F850B1012CCE
:1090300009D1074922463046A847002802DDFFF73C
:10904000C1FF002070BD6FF01500FBE79D92050089
:109050000A82002008B5074B1A78824208D018709F
:109060004FF4F012002304481FF002FFFFF7AAFF9D
:10907000002008BD0A82002050270020014B1878EC
:10908000704700BFF0190020034B1878B0FA80F049
:109090004009FFF7DFBF00BF0A82002010B5044679
:1090A0000C202CF0ABFF024A0260047210BD00BF1E
:1090B0004069050006281FB52AD818B911B9002043
:1090C00004B010BD144C012322688340E9B113435E
:1090D0009A422360F3D08DF800008DF801102CF037
:1090E000D9FD4FF47A72A0FB020302FB0131C00BE1
:1090F00040EA4140C90BCDE9020104AB13E90F007E
:1091000000F094F820F0BCFCD9E722EA0303DFE783
:109110006FF01500D4E700BFF8530020014B196829
:1091200020F063BFF853002006289ABF024B53F883
:1091300020000020704700BFE86B05002DE9F04FCC
:109140009A46602315464B430C2202FB0532214B05
:109150001344884693E807008DB005AC84E8070007
:10916000DDE916671FF0B4F8814670B3CDE90885D4
:10917000CDE90A6705981FF0ABF88368D3F804B00F
:10918000BBF1000F09D00CAB13E90300DDE90823A4
:109190008DE803002046D847A0B9D9F808301B78DD
:1091A000022B14D8CDE90A670CABCDF808A013E95F
:1091B000030042468DE803002B462046CDE9088592
:1091C00020F03EFF0DB0BDE8F08F0120FAE76FF010
:1091D0008500F7E7486905002DE9F34DDDE90AABA5
:1091E000104D80460F4614461AB10F4B1B6845F8C8
:1091F0002130062655F82710F0B220F0F6FE30B9DF
:10920000013EF7D26FF0850002B0BDE8F08DCDE9E8
:1092100000AB23463A4631464046FFF78FFF002811
:10922000F2DDEDE7FC530020F85300207FB56C46DB
:1092300084E80F0018202CF0E1FE0546054B45F8A8
:10924000083B064694E80F0085E80F00304604B05E
:1092500070BD00BF086C050084B070B504AC84E834
:109260000F0020202CF0CAFE0446084B44F8083BAF
:1092700004AD06460FCD0FC495E8030084E8030053
:109280003046BDE8704004B0704700BF106C050068
:109290000268034B9A420CBF08300020704700BFA1
:1092A000106C050013B56C4684E8030010202CF008
:1092B000A5FE0246054942F8081B034694E8030050
:1092C00082E80300184602B010BD00BF146C050010
:1092D00007B5094B1A78094B8DF80020162102FBBF
:1092E0000133019302AB13E90300FFF7DBFF03B087
:1092F0005DF804EB20F0C4BB0B8200200D8200203F
:1093000002490348012202F06DBB00BF0B8200201E
:109310006593050070B503788AB004460E4607AD24
:10932000032B20D8DFE803F002191B1D1149284642
:1093300023F031F963780493A3780393E3780293DD
:1093400023790193637900930B4AA37905951E2134
:10935000304621F064F80AB070BD0849E7E70849D3
:10936000E5E70849E3E7084A0A21284621F057F8CB
:10937000E0E700BF78930500A19305007F93050007
:1093800086930500909305009A9305002DE9F0431C
:109390008BB00D4616461F496A460446984621F092
:1093A0004BFEF8B10098E8B10A2201A923F07AF83F
:1093B000019B1F7857BB162D28D1C4B2042C25D889
:1093C000DFF854906C432A4609EB04014046B0474D
:1093D000002818DD04F10F0002A94844FFF79AFFA6
:1093E000002010E00D496A46204621F025FE50B1CC
:1093F000009B002BF4D1012D08D109492A46404693
:10940000B04700EAE0700BB0BDE8F0836FF01500E4
:10941000F9E700BFC49305000D82002069930500A1
:109420000B82002010B590B0044624F0B4FA08A9CD
:10943000FFF770FF01A9204605F0B2FD9DF8053049
:10944000012B13D10A481FF077FC204624F0A3FA21
:10945000084B09491B78162202FB03110F31072222
:1094600023F0D0F810B905481FF066FC10B010BD0D
:10947000C00E00200B8200200D820020B00E0020C4
:1094800007B50A4B0A481B78162202FB03006946FF
:10949000002307220F300093CDF8033023F0B2F8F9
:1094A000B0FA80F0400903B05DF804FB0B820020A5
:1094B0000D8200202DE9F04104468CB00D464FF09E
:1094C00016080F4F04A9284614FB08F6FFF722FFE1
:1094D00006F10F0029460722384423F0A4F822465B
:1094E0000849684603F026FA4246B919684602F070
:1094F00079FA05481FF020FC0CB0BDE8F08100BFF0
:109500000D820020CD930500B00E002037B50E4B24
:109510000E4C1B78162202FB03440F340025072251
:10952000694620460095CDF8035023F06BF848B10A
:109530002146284605F0E2FC20B124F069F901201B
:1095400003B030BD0020FBE70B8200200D8200201D
:10955000F0B58DB0FFF794FF044610B9FFF7D6FFC2
:1095600000B90224204D287804EB0010112805DCF6
:1095700002282DD010280AD0002405E0202806D08B
:1095800012284FF000040AD020460DB0F0BD04F0C0
:10959000E9FF00232B7004460028EDD0F4E704F027
:1095A000E1FF2C7004460028EED1104F0FCF02AE21
:1095B0000FC63B680E49336004220094234602A87C
:1095C00004F09EFF04460028DED102232B70D3E76F
:1095D000064E0FCE07AC0FC4336823600023044946
:1095E0000093042207A8EBE70C82002080670500A7
:1095F0002C6C050030B591B0054624F0CCF908A9D3
:109600000446FFF787FE01A9284605F0C9FC9DF82E
:109610000530012B05D1FFF733FF214618B904F0BF
:109620001DF911B030BD034B1878FFF743FFFFF76A
:109630008FFFF6E70B82002030B591B00D4601A9EF
:10964000044605F0ADFC9DF80530012B0BD12046FA
:1096500024F0A1F908A9FFF75DFE104B00221A7053
:109660001DB1FFF775FF11B030BD0221204624F077
:1096700038F9FFF76DFF204624F08DF9084B0949B2
:109680001B78162202FB03110F31072222F0BAFFCA
:109690000028E8D104481FF04FFBE4E70C820020CB
:1096A0000B8200200D820020B00E002010B500209B
:1096B00004F01CFA0446C0B902F0E2FA0C4802F0C9
:1096C00021FA044688B90B490B482CF042F90B48A3
:1096D00002F0C2F90A4802F0BFF90A4805F0EAFBB5
:1096E000094805F0BFFDFFF733FF204610BD00BF5E
:1096F000980E00200193020080270020DD930500D2
:10970000E19305007C0E0020D00E00202DE9FF41E2
:10971000124E134F307816254FF00F0815FB0080BE
:1097200000240722694638440094CDF8034022F013
:1097300069FF68B1317815FB01813944204604F096
:109740008DF83078029402A9CDF80B40FFF7B2FEF5
:10975000FFF7FEFE002004B0BDE8F0810B82002080
:109760000D820020014B1878704700BF0B8200204B
:10977000042808B510D80A4B1A7882420AD018700B
:109780004FF4F012002307481FF072FBFFF7E0FED2
:10979000FFF79EFD002001E06FF0210008BD00BF33
:1097A0000B82002080270020054B1878052301300C
:1097B000B0FBF3F303EB8303C01AC0B2FFF7D8BFCB
:1097C0000B820020054B187805230430B0FBF3F31F
:1097D00003EB8303C01AC0B2FFF7CABF0B8200209D
:1097E000034B04481B78162202FB03000F3070471E
:1097F0000B8200200D8200201FB54C240294044CE3
:109800000194BDF81840009425F01DFA04B010BD75
:109810000B94050007B5064B00930649064805233F
:109820004FF400721FF08EFA002003B05DF804FBC5
:10983000786D050080840020B0270020F0B5134E1D
:10984000134F89B000220023694630461EF0C0FF46
:10985000054608B109B0F0BD20F0F9FC0446002827
:10986000F8D01822294602A822F0E8FE08230DEBC2
:10987000030120460397CDF810D0ADF8143007F05F
:109880003FF8204623F0C4FFDCE700BF401C002067
:10989000B06C05002DE9F041134FDFF850808AB01D
:1098A00001AE00220023314638461EF091FF0546E6
:1098B00010B10AB0BDE8F08120F0C9FC04460028D0
:1098C000F7D01822294604A822F0B8FE0C2304A9D8
:1098D0002046CDE90586ADF81C3007F011F820468A
:1098E00023F096FFDDE700BF101C0020146D05007B
:1098F00037B5054640F6CD42014600230C481EF020
:1099000011FF044678B110F10B0F09D1002200239A
:10991000694607481EF05CFF2846FFF7E9FF04464A
:10992000204603B030BD034903482BF0F5FFF7E7AD
:10993000401C0020C80F0020B027002030B505468D
:1099400085B040F6CD42014600230D481EF0EAFEE8
:10995000044678B110F10B0F09D10022002301A9B0
:1099600007481EF035FF2846FFF7E8FF044620466B
:1099700005B030BD034904482BF0CEFFF7E700BF28
:10998000101C0020B80F0020B027002010B504469E
:109990000C202CF033FB024A0260047210BD00BFA1
:1099A000806D050001481FF0C7B900BFD80F002027
:1099B00037B50F4CA5682C21EB6820469847A0B915
:1099C0002C212B696A462046984770B9094C009BA8
:1099D00022789A4209D0D8B2207000F0EFFE20B968
:1099E0002078FFF7D3FF20F04BF803B030BD00BF65
:1099F0007C6205007C82002013B50B482BF055FDDE
:109A000070B1FFF7D5FF044638B94FF4F0120023C8
:109A10000648CDE900231FF033FF204602B010BDF9
:109A20006FF01204F9E700BF7C620500B81A00204D
:109A3000024B187002481FF07FB900BF001A0020C7
:109A4000E80F002008B5044801F0DAFC002818BF30
:109A50006FF0150008BD00BF319A0200014B187865
:109A6000704700BF001A0020084B1B78042B0AD057
:109A700004D8022B34BF0120022070470B2B14BFE7
:109A80000220002070470020704700BF001A00200D
:109A900010B50948094C1EF01BFC206048B1084B6A
:109AA00008494C2216F002F8206825F00EFF00202D
:109AB00010BD6FF01500FBE7719405001C540020E9
:109AC000846D05007794050001481EF0C9BF00BFF2
:109AD000B81C002038B504460D46FFF7BFFF0B2821
:109AE0000BD8DFE800F01E1E0A0A1E060A0A0A0A40
:109AF0000A1EBDE8384001F04DBC4FF476720023D9
:109B000009481EF0D3FF09482146006800232A4671
:109B100025F0E5FE044610B103481EF0A1FF2046E3
:109B200038BD6FF01204FAE7B81C00201C54002066
:109B300008B50448FDF7CCFF18B9BDE8084000F0AF
:109B40006BB808BDC394050008B50A201DF0B6F92E
:109B5000BDE80840014902482BF0DEBE0810002095
:109B6000284F002007B5074907482BF0D5FE4FF4D2
:109B7000A47200230548CDE900231FF081FE03B045
:109B80005DF804FB18100020284F0020F01A002078
:109B900010B5FEF7EFF8D0B104782CB1601E0128A3
:109BA00009D96FF0150005E00A4B186810B1FFF7EE
:109BB000D9FF002010BD074B18680028FAD00649CD
:109BC00006482BF0A9FE06482CF095F8F1E76FF057
:109BD0008500EFE720540020F80F0020284F0020D8
:109BE000F01A0020024B186883685B68184700BFB2
:109BF00020540020024B186883681B68184700BF78
:109C00002054002000487047284F0020014B18784E
:109C1000704700BF7D82002010B50B480B4C1EF032
:109C200057FB206068B100F015F848B126F073FBCF
:109C300023680BB1FFF796FF054B01221A70002035
:109C400010BD6FF01500FBE7C994050020540020FB
:109C50007D820020F7B5002108461AF00BFB1E4C50
:109C60001E4E05460146204600F0CEF82046002450
:109C700020F00FFB234603222146009426F093FC9C
:109C80002946304600F068F93046154E20F003FBB7
:109C9000234601222146009426F085FC29463046C1
:109CA00000F0E2F9304620F0F8FA07461DF05AFEBF
:109CB0002146034648F28E02384626F022FF3046FF
:109CC00020F0EBFA009423460422214626F06BFC98
:109CD000284603B0F0BD00BF2454002034540020B7
:109CE0002C54002038B50C4D4FF0FF324FF0FF33AD
:109CF00028461EF0C7FD00F05BFD0446FFF7B4FEEA
:109D0000064B003818BF01201C7058702846BDE86B
:109D100038401EF02FBE00BFD41B00207E820020E2
:109D200008B5FFF773FF30B1FFF7DCFFFFF76AFFFD
:109D300002492BF0F1FD002008BD00BF28100020D3
:109D40002DE9F0431A4B85B01C68ADF80400FCB156
:109D5000184FDFF86480DFF864909DF8053066687E
:109D60009DF8045042F22002ADF80C201BB1394698
:109D700003A822F010FC5F2D0DD9114903A822F091
:109D800038FC03A930462BF042F92468002CE4D1BA
:109D900005B0BDE8F083412D01D90A49EEE7232D36
:109DA00001D90949EAE7052D8CBF49464146E5E757
:109DB0003C540020D1940500E5940500E194050091
:109DC000D5940500D9940500DD94050073B50C4CBD
:109DD0004FF0FF324FF0FF3320461EF053FD094B8A
:109DE0001E785D7820461EF0C5FD8DF804608DF864
:109DF0000550019802B0BDE87040FFF7A1BF00BF59
:109E0000D41B00207E82002010B5044608460021A5
:109E10001EF074F80F2260602B2126F0E9FB00236E
:109E20002360074B5A6842B9C3E90044FFF75AFF61
:109E30000020FFF7CBFF002010BD14605C60F5E749
:109E40003C5400202DE9F04F87B04FF0FF324FF027
:109E5000FF3320481EF016FD1F4B5A781E7893F8EA
:109E60000280DD7801921B481EF084FD1B4B1C68AC
:109E7000ACB1DFF86C90DFF86CA0DFF86CB067680D
:109E80000023CDE903338DF814305EB1012E0ED0DE
:109E900003A938462BF0BBF82468002CEFD107B09B
:109EA000BDE8F08F494603A822F0A3FBF0E7B8F124
:109EB000000F0BD0019B33B10C4A2B46092103A89C
:109EC00002F020FDE4E72B465A46F7E72B465246C0
:109ED000F4E700BFFC1B00208082002044540020D7
:109EE000E994050004950500FA940500F094050036
:109EF000F8B50F4F4FF0FF324FF0FF3338461EF0EA
:109F0000C1FCFFF7BBF80646FFF700FB0546FFF76D
:109F1000B7FA0446FFF726FC064B84F001041E70D6
:109F20005D709C70D8703846BDE8F8401EF022BDC8
:109F3000FC1B00208082002008B5FFF767FE30B1CF
:109F4000FFF7D6FFFFF75EFE02492BF0E5FC00208D
:109F500008BD00BF3810002010B504460846002197
:109F60001DF0CCFF0F226060282126F041FB00236A
:109F70002360074B5A6842B9C3E90044FFF7B8FFB2
:109F80000020FFF75FFF002010BD14605C60F5E764
:109F9000445400202DE9F04385B04FF0FF324FF0DC
:109FA000FF3317481EF06EFC164B1F785D6814488F
:109FB0001EF0E0FC144B1C68A4B1DFF85080DFF801
:109FC000509066688DB93A46494601A80195ADF8AA
:109FD000085002F0AFFC01A930462BF018F82468B5
:109FE000002CEED105B0BDE8F0830023CDE90133AC
:109FF000039342462B460C2101A802F083FCEAE7BA
:10A00000E81B00204C5400205454002014950500F7
:10A010000E95050038B50A4D4FF0FF324FF0FF3373
:10A0200028461EF02FFC1FF0EAFF0446FFF77CF8DD
:10A03000044B1C7058602846BDE838401EF09ABC9E
:10A04000E81B00204C54002008B5FFF7DFFD30B1BD
:10A05000FFF7E0FFFFF7D6FD02492BF05DFC002083
:10A0600008BD00BF4810002010B504460846002176
:10A070001DF044FF0F226060282126F0B9FA00236A
:10A080002360074B5A6842B9C3E90044FFF7C2FF97
:10A090000020FFF77FFF002010BD14605C60F5E733
:10A0A0005454002030B50A4C0A44914200D130BDCE
:10A0B00011F8013B58400309E35C83EA0013DDB269
:10A0C000C3F30313E05C80EA0510C0B2EDE700BF04
:10A0D0001A9505000B6801330B60014B1B6818478C
:10A0E0005810002007B50B46002102460191034895
:10A0F00001A900F0F9F803B05DF804FBD5A0020057
:10A1000030B585B0CDE901010446002501A9054817
:10A11000039500F0E9F8DDE902309842B8BF255414
:10A1200005B030BDDFA304002DE9F84FB0F818905A
:10A1300019F00808044693460DD001290CBF49F0D8
:10A14000100949F02009A0F818908BF31188BFF38B
:10A150006F8FBDE8F88F09F00709022907D1204663
:10A1600020F084F90028F0D00128238B4ED16769B4
:10A17000218B002F15DA256821F00701C4E900883A
:10A1800041F0010121830026218B01F0070ACA4515
:10A1900002D0A368002B5AD10DB9002E71D0002334
:10A1A00056E001F007035A1F012A1ED821F00701CB
:10A1B000062B256889B2C4E900880AD13DB1638BBA
:10A1C0002A46126801339BB2002AFAD1638341F018
:10A1D00002012183204620F049F906460028D3D009
:10A1E000238B43F020032383CDE7042B0CD121F0F4
:10A1F000070189B22183204620F038F9054600285E
:10A20000C1D041F0200121830025BCE7032809D1FA
:10A21000226923F00703166843F006032383002511
:10A220002F46B1E7042806D1226923F007035668B8
:10A2300043F00403F2E7052806D1226923F007035F
:10A24000966843F00503E9E700252E46E8E7012379
:10A2500041F0080121838BF31188BFF36F8FFBB9A5
:10A2600085BB16B11F492046B0474FF02003EFF3DE
:10A27000118B83F31288BFF36F8F238B23F00803B6
:10A280002383238BDA0625D523F0100323830121B2
:10A29000B4F8189009F0070900297FF45EAF54E77D
:10A2A000A1680029DCD0D1F80090D1F804B03B4679
:10A2B00052462046D847B9F1000FD1D04946D9F8C7
:10A2C0000090F2E729463B46524620462D6820F092
:10A2D000E9F8C5E713F020011EBF23F02003238314
:10A2E0000221D5E7D1A404002DE9F04F8FB01D461F
:10A2F000531E01908A4602934FF00009029B587842
:10A30000252803F1010421D14FF0000C18464FF02D
:10A31000FF3702306146CDF80CC03C460A26027871
:10A320000290392A00F1010058D81F2A18D8002AB3
:10A3300000F0F681019B514625209847029B51462B
:10A340001878019B984709F10209D7E7002800F027
:10A35000E781019B5146984709F101090294CDE735
:10A36000A2F12003192BE5D80FF2040E5EF823F0BA
:10A37000D9A3020035A3020035A30200D9A302002D
:10A3800035A302005DA4020035A3020035A302003C
:10A3900035A3020035A302009FA40200D9A3020046
:10A3A00035A30200B3A402006BA4020035A302008F
:10A3B00077A4020093A4020093A4020093A40200D5
:10A3C00093A4020093A4020093A4020093A40200A9
:10A3D00093A4020093A402009446A0E7582A00F038
:10A3E0001B81A2F163035FFA83FEBEF1170FA1D8B0
:10A3F000172B9FD80FF2040E5EF823F07BA6020005
:10A40000D9A4020035A3020035A3020035A302003F
:10A41000B9A40200D9A4020035A3020035A30200AA
:10A42000B9A4020035A3020035A3020035A302003F
:10A43000C3A5020035A3020035A302005BA60200FB
:10A4400035A30200D9A4020035A3020035A30200FF
:10A45000C3A5020035A30200B9A40200019B514626
:10A460002520984709F1010948E7039B03F0FE0303
:10A470000393002753E7002C0BDA002F0BDA039B22
:10A48000002B00F0498124EAE47406FB0424303CEC
:10A4900045E7002FF7DB06FB0727303F3FE7002F9C
:10A4A00055F8043B01DB1F4639E71C1EBFF637AFEA
:10A4B00064420223039332E7682A03D1682906D154
:10A4C00048212CE76C2A02D16C2900F02781002951
:10A4D0007FF430AF114622E77A2907D1752A05F1BA
:10A4E00004062D6862D14FF000080DE06C29F5D00C
:10A4F0004C29F3D1EB1D23F007031E46752AF6E81D
:10A50000020107D1D3E90058BCF1200F51D1864B8D
:10A51000013C09E005468846B8F1000FF4DA6D42C7
:10A52000824B68EB4808013C00930DAB05934FF05C
:10A53000000B284641460A220023CDF810B0FBF755
:10A54000DFFD059BCDF81C80303203F80129284639
:10A55000CDE90535414600230A22FBF7D1FD069BD4
:10A560000A2B079B73F100030BF1FF3B054688465E
:10A57000DFD2049B049AC3F1010B0EAB9D18002F90
:10A58000A5F1040504DA039B13F0010F18BF274659
:10A59000039BA7EB0B08B8F1000FD4BFA4EB0B048F
:10A5A000E41B9B0700F18180274677E04FEAE578BE
:10A5B000B2E7BCF12B0F0ABF5D4B5E4B04F1FF34D9
:10A5C000B2E7702A28D12E46002356F8041B002932
:10A5D0005CD059480090023C02F06002A2F13908B8
:10A5E0000DF1340E002501F00F02092A88BF424404
:10A5F00030320EF8012910294FEA111242EA037293
:10A600004FEA131073F1000305F1FF3C21D20EABAA
:10A61000C5F1010B1D44B2E76C2904D12E4600237D
:10A6200056F8041B08E04C29F8D1073525F007053A
:10A630002E466B6856F8081BBCF1230F06D13F4D20
:10A640003D4812F0200F08BF2846C3E73948009064
:10A65000C2E7654611460346C5E72E4656F8045B39
:10A66000284621F0A2FF002F834602DBB842A8BF94
:10A67000BB46304B009300278AE72E464FF0010B74
:10A6800056F8043B8DF8203008ADF2E72C4D4FF022
:10A69000050BEEE7019B514620209847013FF9D575
:10A6A00024EAE473013C9944E41A009BA9EB0309F2
:10A6B00004E000935146019B9847009B09EB030778
:10A6C00013F8010B0028F4D1C146B9F1010913D5E3
:10A6D00028EAE878D946B9F1010912D5BBF1000F93
:10A6E000A8BFD8442546013D11D5002CA8BFA044E1
:10A6F00008EB0709354601E6019B51463020984793
:10A70000E3E715F8010B019B51469847E3E7019BEE
:10A71000514620209847E6E70123CBE64C21FEE591
:10A7200048460FB0BDE8F08FEE9405002A9505006D
:10A730002C95050062950500319505002E950500C4
:10A740003495050008B54FF02002EFF3118382F332
:10A750001288BFF36F8F02F0B3F903481FF052FE67
:10A7600001F0D6FDFCE700BF3A9505001FB50724B0
:10A770000294044C0194BDF81840009424F063FA4C
:10A7800004B010BD011A002010B5084C86B0247822
:10A790008DF81740012402940DF117040194BDF8BF
:10A7A0002040009424F04FFA06B010BD081A002093
:10A7B000014B1878704700BF081A002000B589B017
:10A7C00064288DF8070019D80E4B18221870002144
:10A7D00002A821F033FF0C4B03930DF10703049300
:10A7E00002A901230020ADF8143006F089F810F119
:10A7F000800F08BF002009B05DF804FB6FF0150062
:10A80000F9E700BF081A0020486E05002DE9F7435C
:10A810000F4606460821C06ADFF8509020F08BF9F9
:10A820003C68241A80463C6004EA0905AC4203D81F
:10A83000002003B0BDE8F08308236A462146304675
:10A8400020F0EEF80028F4D16946304620F07DF97A
:10A8500040B1BDF80230BDF804203C6005EA0905AE
:10A8600013441D44A4EB0804E0E700BF0000FFFF11
:10A870002DE9F04F044689B00D4600F11407384623
:10A880002AF0EDFE28461DF023FDA062002800F00E
:10A890001F818368DB689847E06228B96FF015056F
:10A8A000284609B0BDE8F08FA06A8368DB68984746
:10A8B0000368013B1F2BF1D8A06A216805AA25F087
:10A8C000C5FA0028EAD1A589002DE7D0069BB5FB83
:10A8D000F3F203FB1255002DE0D1E389012BDDD902
:10A8E000E36A009593F804804FF0FF334FF0FF3296
:10A8F00038461DF0C7FFE06A082120F01CF9A94680
:10A900000646E3891FFA85FA534545D8E3894B4546
:10A9100000F0D38053450BD1009908234246891B90
:10A92000204620F0B5F818B9E089694620F0F8F81B
:10A9300069462046FFF76AFF0546002840F0BF80C1
:10A94000009BDFF8E491636003EA0903A360D4E9A4
:10A95000011399420ED3082301AA204620F060F883
:10A96000C0B901AB13F8012B904540F0C180013014
:10A970000828F7D16368E0891B0C1B046946009323
:10A9800020F0CEF8A38900994246204620F080F8B6
:10A99000002826DA054692E0A1892B04891B13FAC8
:10A9A00081F1424608232046009120F071F878B1E9
:10A9B000E089694620F0B4F809F1010900990823FB
:10A9C000424620461FFA89F920F062F800289DD0FF
:10A9D000013596E7BAF1000F00F0A2806FF01C0578
:10A9E0006DE045D06368334400934FF6FF780099DB
:10A9F000A3898AB29B1B9A4215D36168204620F036
:10AA00006CF80028C6D16368474AA18913400B44FB
:10AA1000A3EB460363601340A360204620F08AF94D
:10AA2000002840D0B6E7082303AA20461FF0F8FF0D
:10AA30000028AFD103A9204620F087F838B1BDF82F
:10AA40000C30434503D1BDF81030002B43D0009BA0
:10AA500033440093CBE75B1A4246204620F018F8B7
:10AA6000002897DB08D0E26AA36812681344A36049
:10AA7000D4E901318B42EED86168A38901EB46022B
:10AA80009A42CDD1DFF8A080A36801EA0802934280
:10AA9000C6D0204620F021F800287FF47BAF636801
:10AAA00003EA0803A360A089A388A0EB4606B3428B
:10AAB00005D1204620F029F96CE76FF02C053846C7
:10AAC0001DF058FF002D7FF4EBAE01232374E7E661
:10AAD0006FF00505E4E66368E0891B0C1B0469461A
:10AAE000009320F01DF8009920461FF0F6FF97E72D
:10AAF00001A9204620F029F8D4F804B080B1009ACA
:10AB0000BDF808A0BDF80610E06A02EA0902A260DA
:10AB1000514420F010F802445A45A2603FF45AAF65
:10AB2000ABEB0603636012E70000FFFF2DE9F04F77
:10AB30001E46037C89B0044689469046002B00F0EF
:10AB4000B280C26A082110461FF0F5FF31468246E6
:10AB500010461FF0F0FFA389A3EB8A039E4207462D
:10AB600000F2A4801EB1B8F1000F00F09F8063686E
:10AB7000039304AA03A92046DDF80CB020F01DF8C9
:10AB8000054600285AD1BDF810304B4505D0626803
:10AB9000039B9A42EDD1DEB950E004A920461FF094
:10ABA000D4FF0028F3D0BDF8143086B19E420FD1F7
:10ABB000BDF812004FEA1B410904014433464246E6
:10ABC00020461FF03BFF002802DC054636E0ABB311
:10ABD000002F37D104F1140A4FF0FF324FF0FF334A
:10ABE00050461DF04FFEDFF8CCB0E3899D4257D0B0
:10ABF000D4E90123F9188A4227D3ADF81A3006A800
:10AC0000FF238DF81E30ADF81890ADF81C601FF0D2
:10AC10007EFF32464146204620F053F8034638B9BD
:10AC200006A9204620F060F8002814BF03463346EA
:10AC3000019350461DF09EFE019B1D46284609B01B
:10AC4000BDE8F08F5744BFB2C4E70821E06A1FF0A7
:10AC500072FF4FF6FF73ADF818300023ADF81C30CB
:10AC60001318ADF81A30A38902EA0B021A44121A1B
:10AC7000626006A81FF04BFF06A9204620F034F8BA
:10AC8000E089211D1FF04CFF636803EA0B03A360FA
:10AC9000204620F04FF803460028C9D10135A4E72B
:10ACA0006FF01B03C4E76FF00C05C7E76FF01505E5
:10ACB000C4E700BF0000FFFF0C4BF0B45F6A0C4E0E
:10ACC0000C4BB34203D36FF08500F0BC70475D6856
:10ACD000BD4209D31C693CB195F802C00579AC4569
:10ACE00002D12346F0BC18472433EAE75C54002025
:10ACF000081F0020E41E00202DE9F047134CDFF868
:10AD00005080DFF8509005460E461746444503D361
:10AD10006FF08500BDE8F0876268D9F824309A4268
:10AD200012D3A36983B190782979884205D13A4634
:10AD300031462846BDE8F04718475279012A03D129
:10AD40003A463146284698472434DFE7E41E00207F
:10AD5000081F00205C5400202DE9F0410B4CDFF867
:10AD6000308005460E461746444502D36FF08500F5
:10AD700009E063690BB92434F6E73A4631462846C0
:10AD800098470028F7D1BDE8F08100BFE41E0020FD
:10AD9000081F002007B583788DF8003003794279C9
:10ADA00043EA0223ADF80230C378684603F0030398
:10ADB0008DF8043015F038FA10F1780F04D018B17E
:10ADC000002003B05DF804FB9DF8000015F0B2FA16
:10ADD00010F1780F01D00028F2D1024B012083F846
:10ADE000B900EEE75C54002002480822002121F05F
:10ADF00025BC00BF1755002070B50B4B0B4CA34270
:10AE000001D3002070BD196A1E7F00220439D5B21B
:10AE1000AE4201D82433F2E7013211F832508542B4
:10AE2000F5D10120EEE700BFE41E0020081F00203E
:10AE3000094808B50378C3F341130A3350F82330A7
:10AE40003BB100F1080200F110019847C043C00F68
:10AE500008BD1846FCE700BF5C54002004282DE91B
:10AE6000F047DFF8888004460E460ED1FFF7BCFF9E
:10AE7000DFF87C9099F8B9305BB100F01FFD042C2D
:10AE800001D0012C05D11B4D16E00528F0D001287A
:10AE9000EED0184D45451ED3154B1B6A1BB33146EA
:10AEA0002046BDE8F0471847D5F820A000272A7FA4
:10AEB000FBB29A4203D824354545F5D307E00AEBA7
:10AEC000C3030137187915F05FFA0028EFDA002381
:10AED00089F8B930DDE7EB681BB1324621462846D8
:10AEE00098472435D6E7BDE8F08700BF081F00204B
:10AEF0005C540020E41E002073B5C4B263060D4606
:10AF00008DF8074007D02046FFF776FF88B10F4B3A
:10AF100093F8BA0068B10D4E204665B115F0A6F958
:10AF2000F3690BB9012004E008200DF107019847EF
:10AF3000284602B070BD15F0C1F9F369002BF1D0BD
:10AF40000DF1070109209847ECE700BF5C54002091
:10AF50002DE9F047A84EB36905460F46904663B900
:10AF6000287800F01F00012800F0A680022800F0D9
:10AF70000E8138B16FF0150095E098470028EFD1A9
:10AF8000002090E095F900206B78002A31DA062B3A
:10AF9000D8F8002010D0082B25D0002BEAD10121B1
:10AFA0005370117096F8C310002918BF022343F0A4
:10AFB0000103137002231AE06B881A0A111F01297A
:10AFC000D8D9072AD6D8D9B2736A1C78002CD1D028
:10AFD0005D78954203D1814200F012810130234413
:10AFE000F3E71B7812E196F8BA30137001233B6047
:10AFF00059E0013B082BBDD801A252F823F000BF55
:10B0000099B0020075AF0200ABB0020075AF02004C
:10B0100025B0020075AF020075AF020075AF0200E7
:10B0200031B00200A87815F0EDF80028A8D0A1E70B
:10B030006C8844B14FF0FF08776A0020C1463C7825
:10B040006CB9002896D0FFF7CFFE6B8886F8BA302F
:10B05000F369002B94D069490320984790E77B78E7
:10B06000042B0CD0052B0DD0022B05D197F80580B1
:10B070006A88424508BF01203B781F44DFE797F804
:10B080000390F9E76B884345F6D1B9F1000FF3D18E
:10B090003846FFF77FFEEFE76B88012B7FF46AAF3E
:10B0A000002086F8C300BDE8F0876B88012B7FF491
:10B0B00061AF86F8C33063E796F8BA30002B3FF4EF
:10B0C00059AF746AB5F804C0287923461A78002A63
:10B0D0003FF450AF5978022904D193F804E0864533
:10B0E00000F296801344F1E7107050703960DAE78F
:10B0F0000C449BE00B287FF43DAF00274FF0FF0A84
:10B10000D046B94606E06378042B0FD0052B22D039
:10B1100023781C442378002BF5D1F36913B14946F9
:10B1200007209847002F7FF42BAF23E794F802A065
:10B13000AA8894F8038092455346E9D169888845E6
:10B140001FFA88F2E4D1072B1ED83344A14683F8B6
:10B15000BB200127DCE7AB885345D9D1AB78434509
:10B160000DD0A778384600F08BFB384615F00CF967
:10B1700010F1780FEDD0B0FA80F77F09C8E72046CC
:10B18000FFF708FE0746C3E7A1460027C0E795F989
:10B1900000206B78002A19DA002B7FF4EBAE2C79B3
:10B1A00063060AD02046FFF727FE00283FF4E2AEF0
:10B1B00096F8BA30002B3FF4DDAED8F800502046A8
:10B1C000294615F09BF800206870F3E6012B08D0A3
:10B1D000032B7FF4CFAE6B88002B7FF4CBAE012125
:10B1E00003E0698800297FF4C5AEA888FFF784FED4
:10B1F00000287FF4C5AEBDE65C5400201655002043
:10B20000022AC8F800307FF4ECAE5B883B60B7E6FA
:10B2100095F900306878002BBFF66CAFD8F80020A5
:10B2200000283FF461AF0A287FF4A4AE21780029FA
:10B230003FF4A0AE6378042B7FF45AAFA3789C450B
:10B240007FF456AF072B96BF9B19002393F8BB30B2
:10B2500013700123DAE700BF13B5134C237DCBB97C
:10B26000E268A168019201AB80201FF07AFE019A8A
:10B27000A3681344A360E3689B1AE36043B93AB13F
:10B280002369E2889A4203DD9B0601D101232375DD
:10B2900002B010BD00231A4619468020237502B063
:10B2A000BDE8104015F096B85C54002030B585B06C
:10B2B000002302460D46019300285FD100293CD1AE
:10B2C00008220B460DEB020124F048FB002804DAAB
:10B2D000802014F0CBFF05B030BD2D4C9DF8093017
:10B2E0009DF808206370BDF80A306380BDF80C300B
:10B2F0002270A38004F13801BDF80E30E3801206FD
:10B30000C4E90355A16025750AD4802B04D9802097
:10B3100014F0ACFF0020DCE713B1C4E90333DAE733
:10B32000FFF786FD0028D3D0E28823699A42D4BF74
:10B33000E260E360FFF790FFCDE7154CD4E902151A
:10B34000002D01AB04DC24F009FB0028C3DABFE7C1
:10B350002A4624F003FB0028D9DB0199A268E368A0
:10B360000A445B1AA260E360002BB4D104F13803F5
:10B37000A360FFF75DFD0028DCD1A9E78028AAD1F2
:10B38000034BDA68002AD5D11B7D002BD2D1A2E76E
:10B390005C540020044B93F8C3300BB124F0EDBA99
:10B3A0006FF00C00704700BF5C540020054B064A4C
:10B3B0009A62064ADA62064A1A63064A58629A6133
:10B3C000002070475C54002051AF0200B9AC02006D
:10B3D00059AD0200F9AC0200084B10B593F8B84023
:10B3E00034B900F0A3F930B1FFF7E0FF204610BDFB
:10B3F0006FF07700FBE74FF0FF30F8E75C54002078
:10B400002DE9F3410446354D35484FF0FF324FF0FA
:10B41000FF331DF037FA95F8B860002E5BD1314844
:10B420002C62E86115F0ECF814F0AEFE041E36DB79
:10B4300000F06CFA041E32DB40236846ADF802309F
:10B440008DF804608DF8006014F0EEFE041E26DB1B
:10B45000802768468DF8007014F0E6FE041E1EDB9F
:10B460002149304615F0B8F8041E18DB1E4938464D
:10B4700015F0B2F8041E12DB1C4CDFF87480444552
:10B4800014D3002014F056FF041E08DB802014F0B3
:10B4900051FF041E03DB012385F8B8300024104857
:10B4A0001DF068FA204602B0BDE8F081276A002648
:10B4B000227FF3B29A4201D82434E0E707EBC302BB
:10B4C00057F83310107915F087F801360028EFD0BF
:10B4D0004FF0FF34E3E76FF07704E0E75C540020BF
:10B4E000C01B00205DAE0200ADB20200E41E0020D1
:10B4F000081F002030B51F4B8BB005AA03F11005C3
:10B5000018685968144603C40833AB422246F7D181
:10B510001B7823701022002101A821F08FF812223D
:10B520000021154821F08AF8102101A824F0F5FB2C
:10B5300000281BDD0828B8BF0820083801AB0E4AD8
:10B540001844002110F8013B0AAC04EB131403F07B
:10B550000F0314F8144C14700AAC2344013113F88F
:10B56000143C5370082902F10202EBD102480BB0DF
:10B5700030BD00BF7E950500848200202DE9F04F8C
:10B58000044685B000254FF0011BA9462E46AA4669
:10B59000207820B9614B02349C421FD0F2E76378D7
:10B5A000052B05D8DFE803F0780403780720A246CE
:10B5B00023781C44ECE7E378002BF9D1A37883B11E
:10B5C00009F101095FFA89F9F2E77268944200F023
:10B5D0009D8024369E42F8D34FF0FF3005B0BDE881
:10B5E000F08F4F4E4F4BF5E7002EF5D00023012191
:10B5F000327F9342F0D2326AA77802EBC30210790D
:10B60000874201D00133F3E70127E07894F805C0C1
:10B6100000F003008DF80C00207940EA0C20ADF812
:10B620000A0094F9020000285FFA87F828DA07F187
:10B63000100001FA00F010EA0B0F29D168F07F002A
:10B640008DF8080002A8CDE9003224F06FF9DDE999
:10B6500000320121E0B99DF80830A37013F0800F8B
:10B660001CBF08F110085FFA88F813710B4615BF6C
:10B6700001FA08F8BB404BEA080B4BEA030B97E7CB
:10B6800001FA07F010EA0B0F02D18DF80880D9E714
:10B690000137102FB9D1B5E7032D1DD1FFF72AFFD0
:10B6A000074668B120F081FF804648B11E4820F06F
:10B6B0007CFF804504D142463946A01C20F0B3FFF0
:10B6C00023786FF00201E218091B04EB5303D14207
:10B6D00013D50135EDB26BE7002DF1D1BAF1000FB2
:10B6E0003FF47AAFA4EB0A038AF80230C3F30723CE
:10B6F0008AF803308AF80490EBE74FF0000002F874
:10B70000010C13F8010902F8020DE0E7B368002B01
:10B710003FF456AF49462046984751E7E21E0020C5
:10B72000E41E0020081F00207E95050008B504488F
:10B73000FFF724FF0028024818BF002008BD00BF03
:10B74000501E002010B5094B00211A461C78844277
:10B7500005D15C681CB1482000FB012010BD0131FF
:10B76000042903F14803F1D10020F7E72055002018
:10B770002DE9F34150F8303C10F8346C1033044696
:10B7800010D1036950F8282C99073CD502BB13F05F
:10B79000040304D11A46194630461FF0E2FB002389
:10B7A00044F8303C54F8303C10330ED054F8205C50
:10B7B0005DB154F8247C54F81C8C29F036FF002825
:10B7C0004CD02E4821462AF0A7F802B0BDE8F081FF
:10B7D00050F82C1C01AB30461FF0C3FB10B16FF0CA
:10B7E0001503DDE7019A54F82C3C134444F82C3C33
:10B7F00054F8283C9B1A44F8283C54F8243C134441
:10B8000044F8243CCEE750F82C1C01AB304614F031
:10B8100059FE0028E3D1019D54F82C3C2B4444F8F8
:10B820002C3C54F8283C5B1B44F8283C54F8243C3E
:10B830002B4444F8243C002DB1D0304614F0E6FEF1
:10B84000B5FBF0F303FB1055002DA8D154F8283CAC
:10B85000002BA4D0304614F07DFEA3E744F8200C62
:10B86000A4F118001DF0FCF854F8303C8C33ACD037
:10B87000424639463046A847A7E700BF284F002078
:10B8800010B54FF02003EFF3118483F31288BFF358
:10B890006F8FFFF757FF50B14368103307D16FF038
:10B8A0008B03436000F1340103482AF035F884F338
:10B8B0001188BFF36F8F10BD284F00202DE9F04194
:10B8C000104CDFF8448004256FF08B074FF0200305
:10B8D000EFF3118683F31288BFF36F8F6368103321
:10B8E00005D104F13401404667602AF015F886F36B
:10B8F0001188BFF36F8F013D04F14804E6D1BDE824
:10B90000F08100BF20550020284F002070B50A4C60
:10B910000A4E00253146204629F0F5FF0122A4F108
:10B9200018001146013529F06EFF042D04F148047A
:10B93000F0D1002070BD00BF5455002071B7020047
:10B940000C4B1B6870B573B10B4A15680022AA42F4
:10B9500002DB6FF0010070BD1C4613F8106B8642CD
:10B9600004D00132F3E76FF00C00F4E70C60002024
:10B97000F1E700BFC8100020C46E050070B588B0A4
:10B9800005460C46C0B269461646FFF7D9FF0028A7
:10B990001FDB009BEBB15A6802929A682168D86855
:10B9A0000195CDE903260022CDE9061205921CF08F
:10B9B0008FFC054600981FF01CFB6DB12846084916
:10B9C00001AA24F047FA079808B9059B236008B03C
:10B9D00070BD6FF01500FAE76FF01200F7E700BFD7
:10B9E000F5AF0400104B2DE9F0411C6805460E46EA
:10B9F0001746ACB14FF0FF324FF0FF330B481CF04D
:10BA000041FF63683246D3F8088029463B4620460A
:10BA1000C047044605481CF0ADFF2046BDE8F08154
:10BA20006FF00104F9E700BF48560020AC1B00206E
:10BA300000230360044B5A6812B9C3E90000704741
:10BA400010605860704700BF40560020014B1860DE
:10BA5000704700BF4856002030B585B0002305462A
:10BA6000CDE9023301904FF0FF330C484FF0FF3225
:10BA70001CF008FF0A4B1C6834B1636820461B6841
:10BA800001A998472468F7E7284600F0C1F8044662
:10BA900002481CF06FFF204605B030BDAC1B0020F3
:10BAA000405600201FB5CDE9010103924FF0FF334E
:10BAB0000A484FF0FF321CF0E5FE094B1C6834B118
:10BAC000636820461B6801A998472468F7E7034884
:10BAD0001CF050FF002004B010BD00BFAC1B0020C4
